:100000000C943E000C945B000C945B000C945B0021
:100010000C945B000C945B000C945B000C945B00F4
:100020000C945B000C945B000C945B000C945B00E4
:100030000C945B000C945B000C945B000C945B00D4
:100040000C945B000C945B000C945B000C945B00C4
:100050000C945B000C945B000C945B000C945B00B4
:100060000C945B000C945B000C945B000C945B00A4
:100070000C945B000C945B000C945B0011241FBE7D
:10008000CFEFD8E0DEBFCDBF11E0A6E0B1E001C008
:100090001D92A132B107E1F711E0A0E0B1E0EEEF6F
:1000A000F6E002C005900D92A630B107D9F70E9484
:1000B00022010C947D030C940000282F40E0803630
:1000C00010F441E020E090E030E060E573EC25C002
:1000D000E92FF0E0EE0FFF1FE95FFE4F0190F08186
:1000E000E02D0180F281E02D8081803630F44423C0
:1000F00011F480E601C080E080838081281718F425
:100100008081815005C08081821718F480818F5FC3
:100110008083808182133F5F9F5F9430C8F2CB0160
:100120000197F1F7332319F090E030E0D1CF089533
:1001300082E061E00E941902529A0895279A259A56
:10014000249A269886ED8CBD089A109A08958EBD43
:100150000DB407FEFDCF08958EBD0DB407FEFDCF93
:100160008EB508958EBD0DB407FEFDCF8EB50895F2
:1001700090911001992381F4109888E28A95F1F703
:100180008AEA8EBD0DB407FEFDCF8EB580931101B6
:1001900081E0809310010895983078F48FEF8EBD40
:1001A0000DB407FEFDCF8EB5E92FF0E0EF5EFE4FF8
:1001B00080839F5F909310010895109A80E197E2E9
:1001C0000197F1F71092100180911401282F30E06F
:1001D00080FF1AC09091130180E0820F931F2FEFD0
:1001E0008F3F920781F09695879596958795909386
:1001F0001C0180931B010197833B910510F45A9ACF
:1002000008955A9808955A9A089540E050E064EF8E
:1002100071E014C05A9A24EC39E0FB013197F1F7F0
:1002200021503040D1F75A9824EC39E0FB01319746
:10023000F1F721503040D1F74F5F5F4F4817590712
:100240004CF30895CF93DF930E949800E09107014B
:10025000F091080181E086838781A481B581338193
:10026000882309F466C02C9181E090E002C0880FD9
:10027000991F3A95E2F7282B2C932C91E0910901D4
:10028000F0910A0116828781A481B5813381882388
:1002900009F45BC02C9181E090E002C0880F991FA7
:1002A0003A95E2F7809582238C932C91E0910B0193
:1002B000F0910C0181E086838781A481B58133812F
:1002C000882309F44DC02C9181E090E002C0880F92
:1002D000991F3A95E2F7282B2C932C91E0910D0170
:1002E000F0910E011682E0910D01F0910E018781CF
:1002F000A481B5813381882309F43EC02C9181E02B
:1003000090E002C0880F991F3A95E2F7809582230A
:100310008C932C910E949E005A98C4EFD1E00E94C9
:10032000B80080ED97E0FE013197F1F70197D9F71A
:10033000F6CF2C9181E090E002C0880F991F3A958A
:10034000E2F7809582238C9398CF2C9181E090E006
:1003500002C0880F991F3A95E2F7282B2C93A5CF5E
:100360002C9181E090E002C0880F991F3A95E2F746
:10037000809582238C93B1CF2C9181E090E002C0D4
:10038000880F991F3A95E2F7282B2C93C2CF8091C2
:100390000601089580910F010895982F81508230B1
:1003A00010F490930601862F8150853010F46093ED
:1003B0000F0180910601813019F08230A1F40AC04A
:1003C00093EA94BD80910F0185BD9093B000809316
:1003D000B100089591EA94BD80910F0185BD90937D
:1003E000B0008093B1000895882319F0813021F482
:1003F00002C047980895479A0895CF92DF92EF92EE
:10040000FF920F931F938C01D62E7A01C22E88E0A3
:1004100090E00E947802FC0112830183D382F5826E
:10042000E482C7821F910F91FF90EF90DF90CF90F1
:100430000895FF920F931F930E94CD0188E090E0F2
:100440000E947802FC0187E490E09283818382E03D
:10045000838302E210E015830483FF24F394F78280
:10046000F0930801E093070188E090E00E94780291
:10047000FC0188E490E09283818383E08383158389
:100480000483F782F0930A01E093090188E090E089
:100490000E947802FC0183EB90E09283818385E0E7
:1004A000838308E210E015830483F782F0930C0144
:1004B000E0930B0188E090E00E947802FC0184EB5D
:1004C00090E09283818384E0838315830483F782A1
:1004D000F0930E01E0930D010A9A239A0B9A249A45
:1004E0003D9A579A3C9A569A1F910F91FF90089502
:1004F000CF93DF93BC018230910510F462E070E08D
:10050000A0911F01B0912001ED01E0E0F0E040E09A
:1005100050E021C0888199818617970769F48A8104
:100520009B81309719F09383828304C090932001BC
:1005300080931F01FE0134C06817790738F4411514
:10054000510519F08417950708F4AC01FE018A8162
:100550009B819C01E9012097E9F641155105A9F11C
:10056000CA01861B970B049708F4BA01E0E0F0E09B
:100570002AC08D919C91119784179507F9F46417FF
:10058000750781F412968D919C911397309719F00D
:100590009383828304C09093200180931F01FD0107
:1005A00032964FC0CA01861B970BFD01E80FF91F59
:1005B0006193719302978D939C9343C0FD01828157
:1005C00093819C01D9011097A1F680911D01909112
:1005D0001E01892B41F480910201909103019093B7
:1005E0001E0180931D0140910401509105014115A8
:1005F000510541F44DB75EB7809100019091010122
:10060000481B590B20911D0130911E0124173507FD
:10061000B0F4CA01821B930B8617970780F0AB01D9
:100620004E5F5F4F8417950750F0420F531F509352
:100630001E0140931D01F9016193719302C0E0E036
:10064000F0E0CF01DF91CF910895CF93DF93009732
:1006500009F450C0EC0122971B821A82A0911F015D
:10066000B0912001109709F140E050E0AC17BD07B0
:1006700008F1BB83AA83FE0121913191E20FF31FA0
:10068000AE17BF0779F48D919C911197280F391FF0
:100690002E5F3F4F3983288312968D919C9113973B
:1006A0009B838A834115510571F4D0932001C09337
:1006B0001F0120C012968D919C911397AD01009758
:1006C00011F0DC01D3CFFA01D383C28321913191A0
:1006D000E20FF31FCE17DF0769F488819981280F95
:1006E000391F2E5F3F4FFA01318320838A819B811E
:0E06F00093838283DF91CF910895F894FFCF1A
:0606FE00200021010000B4
:00000001FF
