:107800000C943E3C0C94503C0C94503C0C94503CDA
:107810000C94503C0C94503C0C94503C0C94503CB8
:107820000C94503C0C94503C0C94503C0C94503CA8
:107830000C94503C0C94503C0C94503C0C94503C98
:107840000C94503C0C94503C0C94503C0C94503C88
:107850000C94503C0C94503C0C94503C0C94503C78
:107860000C94503C0C94503C0C94503C0C94503C68
:107870000C94503C0C94503C0C94503C11241FBE72
:10788000CFEFD8E0DEBFCDBF11E0A0E0B1E001C096
:107890001D92A938B107E1F70E94AC3D0C94D33F8B
:1078A0000C94003C982F8091C00085FFFCCF9093F2
:1078B000C60008951F93282F992787FD9095807FF4
:1078C00090709595879595958795959587959595BC
:1078D00087958A3084F0982F995A822F8F708A303A
:1078E00084F4182F105D892F0E94523C812F0E9432
:1078F000523C1F910895982F905D822F8F708A308F
:1079000084F3182F195A892F0E94523C812F0E940C
:10791000523C1F910895EF92FF920F931F935A9834
:10792000EE24FF2487018091C00087FD17C00894D2
:10793000E11CF11C011D111D81E0E81689E0F8062B
:107940008DE3080780E0180770F3E0910101F091E2
:10795000020109958091C00087FFE9CF5A9A809172
:10796000C6001F910F91FF90EF9008950F931F9302
:107970000E948B3C182F0E94523C0E948B3C082F87
:107980000E94523C11366CF0175501367CF40033DE
:107990000CF000531295107F802F810F1F910F91D3
:1079A0000895103394F3105301368CF30755129554
:1079B000107F802F810F1F910F910895282F88230A
:1079C00051F090E08091C00087FFFCCF8091C6000D
:1079D0009F5F9217B8F308951F93182F0E948B3C56
:1079E000803281F0809100018F5F809300018530AB
:1079F00011F01F910895E0910101F09102010995A4
:107A00001F91089584E10E94523C812F0E94523CB4
:107A100080E10E94523C1F9108950E948B3C80326D
:107A200071F0809100018F5F80930001853009F033
:107A30000895E0910101F09102010995089584E112
:107A40000E94523C80E10E94523C0895DF93CF9304
:107A500000D000D0CDB7DEB7882309F076C044E06F
:107A600050E020E030E05A9A19821A821B821C8270
:107A700089819A81AB81BC8180529E44A040B040F4
:107A8000A0F489819A81AB81BC810196A11DB11DB1
:107A900089839A83AB83BC8389819A81AB81BC81C2
:107AA00080529E44A040B04060F35A9819821A82D6
:107AB0001B821C8289819A81AB81BC81805898434A
:107AC000A140B040A0F489819A81AB81BC8101962C
:107AD000A11DB11D89839A83AB83BC8389819A815F
:107AE000AB81BC8180589843A140B04060F32F5FC8
:107AF0003F4F241735070CF4B6CF19821A821B8228
:107B00001C8289819A81AB81BC8180549D40A340B5
:107B1000B040A0F489819A81AB81BC810196A11DFE
:107B2000B11D89839A83AB83BC8389819A81AB81A0
:107B3000BC8180549D40A340B04060F30F900F90F3
:107B40000F900F90CF91DF910895482F50E041158D
:107B5000510509F086CFD1CFEF92FF920F931F937B
:107B6000CF93DF93000094B714BE809160008861CA
:107B7000809360001092600091FFA0C180E4809328
:107B8000C4001092C50088E18093C10086E0809314
:107B9000C2005098589A529A84E00E94263D81E093
:107BA0000E94263D0E948B3C8033B9F18133C1F1A4
:107BB000803409F455C0813409F45BC0823409F47F
:107BC0006AC0853409F46DC0803539F1813509F416
:107BD00044C1823511F1853509F469C0863509F44F
:107BE00071C0843609F4CEC0843709F472C0853779
:107BF00009F449C1863709F44AC0809100018F5FBA
:107C000080930001853071F6E0910101F09102014D
:107C100009950E948B3C803349F60E940D3DC2CFEE
:107C20000E948B3C803249F784E10E94523C81E4FF
:107C30000E94523C86E50E94523C82E50E94523CE2
:107C400080E20E94523C89E40E94523C83E50E94FB
:107C5000523C80E50E94523C80E10E94523CA2CFFF
:107C60000E948B3C8638C8F20E948B3C0E940D3DDE
:107C700099CF0E948B3C803809F401C1813809F406
:107C8000FAC0823809F4F3C0883909F4ECC080E006
:107C90000E94EC3C87CF84E10E94DE3C0E940D3DB7
:107CA00081CF85E00E94DE3C0E940D3D7BCF0E948B
:107CB0008B3C809303010E948B3C809304010E94C3
:107CC0000D3D70CF84E00E94DE3C80E00E94EC3CE1
:107CD00069CF0E948B3C809386010E948B3C8093ED
:107CE00085010E948B3C853409F4E2C080918801B3
:107CF0008E7F809388018091030190910401880F09
:107D0000991F90930401809303010E948B3C803261
:107D100009F048CF84E10E94523C80918501909106
:107D20008601009709F4C0C000E010E0E091030173
:107D3000F09104010DC021FF2AC13196F093040196
:107D4000E09303010F5F1F4F0817190708F0ACC03D
:107D50002091880120FFEFCFF999FECFF2BDE1BD60
:107D6000F89A80B50E94523CE0910301F091040121
:107D70003196F0930401E093030180918501909185
:107D80008601E0CF0E948B3C809386010E948B3C51
:107D900080938501809188018E7F809388010E9465
:107DA0008B3C853429F4809188018160809388011F
:107DB00065E0E62E61E0F62EF701119281E0E534F0
:107DC000F807D9F78091850190918601892B89F078
:107DD00000E010E00E948B3CF801EB5FFE4F8083D7
:107DE0000F5F1F4F80918501909186010817190739
:107DF00088F30E948B3C803209F0FFCE809188018D
:107E000080FF62C0609185017091860161157105E6
:107E1000E9F040910301509104019A01FB01EB5FED
:107E2000FE4FF999FECF32BD21BDD7018D917D0165
:107E300080BDFA9AF99A2F5F3F4FAE17BF0789F7B7
:107E4000460F571F509304014093030184E10E94A1
:107E5000523C80E10E94523CA5CE0E940D3D88E03C
:107E600080936000FFCF83E00E94EC3C9BCE80E1DA
:107E70000E94EC3C97CE81E00E94EC3C93CE82E0E5
:107E80000E94EC3C8FCE0E948B3C803209F0B5CE34
:107E900084E10E94523C8EE10E94523C85E90E949E
:107EA000523C88E00E94523C80E10E94523C7ACED3
:107EB0008091880181608093880127CFE091010142
:107EC000F091020109955ACE80910301909104012D
:107ED000880F991F9093040180930301809185017D
:107EE00080FF09C080918501909186010196909351
:107EF000860180938501F999FECF1127E091030156
:107F0000F0910401C5E0D1E0809185019091860156
:107F1000103091F40091570001700130D9F303E063
:107F200000935700E8950091570001700130D9F394
:107F300001E100935700E8950990199000915700CE
:107F400001700130D9F301E000935700E8951395D3
:107F5000103498F011270091570001700130D9F3C7
:107F600005E000935700E89500915700017001303B
:107F7000D9F301E100935700E8953296029709F092
:107F8000C7CF103011F00296E5CF11245FCF849156
:107F90000E94523C8091850190918601E0910301FD
:0A7FA000F0910401CACEF894FFCF5F
:040000030000780081
:00000001FF
