:107000000C943E380C945B380C945B380C945B38D1
:107010000C945B380C945B380C945B380C945B38A4
:107020000C945B380C945B380C945B380C945B3894
:107030000C945B380C945B380C945B380C945B3884
:107040000C945B380C945B380C945B380C945B3874
:107050000C945B380C945B380C945B380C945B3864
:107060000C945B380C945B380C945B380C945B3854
:107070000C945B380C945B380C945B3811241FBE65
:10708000CFEFD8E0DEBFCDBF11E0A0E0B1E0EAEF86
:10709000F4E702C005900D92A630B107D9F711E0D0
:1070A000A6E0B1E001C01D92AC38B107E1F70E9443
:1070B000D5380C947B3A0C940038CF93DF93EC01D5
:1070C000A0910801B091090183E0FD018093570070
:1070D000E89507B600FCFDCF10928B0171E014C05B
:1070E000262F30E0FE01E20FF31F518140E0808146
:1070F00090E0842B952BF9010C0170935700E895D3
:1071000011246E5F60938B0160918B0167FFE8CF64
:1071100085E0FD0180935700E89507B600FCFDCFA0
:10712000DF91CF9108958093C6008091C00086FFC3
:10713000FCCF8091C00080648093C000089580914E
:10714000C00087FFFCCF8091C6000895FC0170E865
:1071500080E090E0A1E2B0E1508140E084279527F3
:1071600068E09C01220F331F97FF02C02A273B27AC
:107170006150C901B1F7715011F03196EDCF3093E4
:107180008A0120930701089580E090E00E94653A0B
:10719000882319F0E0E0F0E7099581E1809357003A
:1071A000E895E0E0F0E0099508959F92AF92BF92D4
:1071B000CF92DF92EF92FF920F931F93F8942EE0FD
:1071C00088E190E00FB6F894A895809360000FBE18
:1071D0002093600082E49FE0909389008093880070
:1071E000109280008DE080938100529A1092C0002E
:1071F00088E18093C10086E08093C2001092C500B0
:1072000080E48093C4001092070115E004E0A89583
:10721000B19B0CC0B19A809107018530E9F08BB128
:1072200080278BB9115011F40E94C4388091C0009E
:1072300087FFEDCF8091C60020910701E22FF0E09B
:10724000E050FF4F9081891721F42F5F20930701B1
:10725000DECF10920701DBCF80E090E061E00E947A
:107260006D3A14E1F3E4FF2E04E0B19B13C0B19A30
:10727000F092C6008091C00086FFFCCF8091C000D4
:1072800080648093C0008BB180278BB9115011F4BA
:107290000E94C438A8958091C00087FFE6CF8091F6
:1072A000C600813011F710928100109206011092F1
:1072B00009011092080110E0EE24E5E1DE2E74E0F1
:1072C000972E66E0C62E51E1B52EAA24A394E3942E
:1072D0008091C00087FFFCCF9091C60090938A01F7
:1072E0008091C00087FFFCCF8091C600809580937D
:1072F0000701E91609F0B1C0E81609F0AEC0909197
:107300000601292F20588091C00087FFFCCF809173
:10731000C600E92FF0E0E65FFE4F80839F5F921783
:1073200091F7909306018091C00087FFFCCFF09009
:10733000C6008091C00087FFFCCF0091C600892F56
:1073400090E086579F4F0E94A63880918A01F816D8
:1073500009F07CC080910701081709F077C080917F
:107360000801909109018050904790F480910601A6
:1073700087FF10C08AE091E00E945D38809108018B
:107380009091090180589F4F9093090180930801C3
:1073900010920601409108015091090180E74030A8
:1073A000580708F042C0B0925700E895A092070134
:1073B00010928B0120E0BA016058704014C0A22FD7
:1073C000B0E0CB018A0F9B1FFC019491322F3F5FED
:1073D000A65FBE4F8C91981729F020938B011092D5
:1073E000070105C0232F27FFEACF20938B0180914F
:1073F0000701882339F0C092C6008091C00086FF43
:10740000FCCF19C0D092C6008091C00086FFFCCF8F
:107410008091C00080648093C0001F5F405850403E
:1074200050930901409308010CC0C092C60080919E
:10743000C00086FFFCCF8091C00080648093C000B4
:1074400010E0A8958BB189258BB913C0D092C600E6
:107450008091C00086FFFCCF06C0D092C60080910C
:10746000C00086FFFCCF8091C00080648093C00084
:107470001F5F143048F48091C00087FFFCCF8091DB
:10748000C600843009F023CF86E08093C600809147
:10749000C00086FFFCCF8091C00080648093C00054
:1074A0001111FFCF80E090E060E00E946D3A0E94F1
:1074B000C43880E090E01F910F91FF90EF90DF9033
:1074C000CF90BF90AF909F900895F999FECF92BD55
:1074D00081BDF89A992780B50895262FF999FECF96
:1074E0001FBA92BD81BD20BD0FB6F894FA9AF99AE1
:0A74F0000FBE01960895F894FFCF37
:0674FA004156525542000C
:040000030000700089
:00000001FF
